:030000000203D820
:0C03D800787FE4F6D8FD75812102000357
:10026400E4F590FD7F8E12037DE4FD7F8012037D13
:10027400E4FD7F8212037D7D187F8412037D7D045B
:100284007F8612037D7D017F8812037D7D047F8A32
:1002940012037D7D187F8C12037D7D807F8E020387
:0102A4007DDC
:0703F0008B1F8A20892122E6
:1000C0008B1A8A1B891C7F811203177D071202E19C
:1000D000AB1AAA1BA91CEF12018E7F831203177D96
:1000E000071202E1AB1AAA1BA91C900001EF120132
:1000F000A07F851203177D061202E1AB1AAA1BA985
:100100001C900002EF1201A07F871203177D0612D8
:1001100002E1AB1AAA1BA91C900004EF1201A07FF8
:10012000891203177D061202E1AB1AAA1BA91C90C3
:100130000005EF1201A07F8D1203177D081202E166
:10014000AB1AAA1BA91C900006E48FF01201C27F13
:100150008B120317AB1AAA1BA91C900008EF02010F
:01016000A0FE
:10037D008D1AC29200C29000D292001203B200AF49
:0B038D001A1203B200D29000C29222AC
:020317008F1D38
:10031900C29200D29200C290001203B200E4FFC35D
:1003290013A29192E7D290C2900FBF08F2F51DD2A5
:050339009000C292FFDC
:01033E00229C
:1003B200E4FEEFA2E0929100D29000C290C3130E2D
:0303C200BE08F082
:0103C5002215
:1002E100EF540FFC7E00C374089DFBEFA803088048
:1002F10005C333CE33CED8F9FFEDF404240CFDEF62
:10030100A805088006CEA2E713CE13D8F8540F75BE
:05031100F00AA42CFF1E
:0103160022C4
:10039800EF75F00A84E5F0243012018EEF75F00A4B
:0A03A8008424309000011201A0220D
:10033F00EDD394004019ED7E0024FFF582EE34FFDB
:10034F00F583120161F5993099FDC2991D80E12263
:0C03E4003F065B4F666D7D077F6F804019
:10000300E4F519D2B4D2B5D2B6D2B71203C67599F4
:100013000F12026475990FC2997B007A0079081256
:1000230000C01202A5BF010CE51970047F01800214
:100033007F008F19E5197B007A0079116032AF08D0
:10004300120398E51124D0F518E51224D0F5177B97
:10005300007A007911AF09120398E51124D0F5163F
:10006300E51224D0F5157B007A007911AF0A8030B0
:10007300AF0C120398E51124D0F518E51224D0F53E
:10008300177B007A007911AF0D120398E51124D084
:10009300F516E51224D0F515AF0F7B007A00791120
:1000A300120398E51124D0F514E51224D0F5137B3F
:0D00B300007A0079137D011201EF02001C9C
:1003C600758920758BF3758DF3D28EC29FD29ED21E
:0203D6009C2267
:10035F00D3EF9400EE940040147D287C05ED1D70C2
:0D036F00011CED4C70F7EF1F70E61E80E3DF
:01037C00225E
:0801EF008B1A8A1B891C8D1D6F
:1001F700E4F51ED2A7AF1E7401A807088002C33317
:10020700D8FCF5806380FFC2A7D2A6AB1AAA1BA9A8
:100217001C851E827583001201619003E493F580AB
:10022700E51DB4010DE51E64016011E51EB403026E
:10023700800AE51DB40213E51EB4020E7F017E009D
:1002470012035F9003EEE493F580C2A67F017E0060
:0C02570012035F051EE51EC394064097CD
:010263002278
:1002A500E4FB30B40930B50630B60320B7077F0A42
:1002B5007E0012035F20B4047B01801320B5047B0C
:1002C50002800C20B6047B03800520B7027B04EB7B
:0B02D50060077FC87E0012035FAF03CC
:0102E00022FB
:10016100BB010CE58229F582E5833AF583E0225053
:1001710006E92582F8E622BBFE06E92582F8E2229D
:0D018100E58229F582E5833AF583E49322B7
:10018E00BB010689828A83F0225002F722BBFE0150
:02019E00F3224A
:1001A000F8BB010DE58229F582E5833AF583E8F095
:1001B000225006E92582C8F622BBFE05E92582C841
:0201C000F22229
:1001C200F8BB0111E58229F582E5833AF583E8F06F
:1001D200E5F0A3F0225009E92582C8F608A6F0222C
:0D01E200BBFE09E92582C8F2E5F008F22213
:00000001FF
